:02000000C42C0E
:0E000600213083120313FD00FD0B07280800B4
:100014000F3083120313FC004730FD00FD0B102842
:0A002400FC0B10280000000008008B
:06002E00000000000800C4
:100034007B15FB1F24280130F300F201F101F001CC
:08004400FA0DF20CFF30080078
:10004C0083120313E71B2C2887132D288717671B94
:10005C003128071332280717E71A36288712372852
:10006C008716671A3B2807123C28071642184028A7
:10007C00071541280711871517208711E7194828FC
:10008C0087134928871767194D2807134E28071718
:10009C00E718522887125328871667185728071213
:1000AC005828071642185C2807155D280711871574
:1000BC0017208711421C64280A2065280320080099
:0E00CC00F201F101F001F801F301003008002B
:0800DA00FA1FF21300300800C8
:1000E200FB14FB1F7B28FF30F300F200F100F0004D
:0800F200FA0DF20CFF300800CA
:1000FA000E3083120313FD00FD0B81280000080057
:10010A008316031387110711071287120713871320
:10011A0083128711071187130713871207120A2000
:10012A000A200A20871607168715172087110A2022
:10013A008715172087110A208715172087110A208B
:10014A0007128715172087110A208715172087118C
:10015A00871287178715172087110A208713071612
:10016A0087151720871107128715172087110A206C
:10017A0087151720871107168715172087110A2058
:10018A00071287151720871187170717871607166B
:0C019A008715172087110A204214080066
:1001A600FF3083120313BF00FF30C000FF30C100D1
:1001B600FF30C3309F05C0309F0083169F17831200
:0401C6001F140800FA
:1001CA00A0017208031DFA287108F2007008F100F4
:1001DA00F001A0157208031DFA287108F200F10156
:1001EA00A01120167208031908292008F302031D1A
:1001FA00031C0C290310F21B1029F00DF10DF20D4E
:10020A00F30B00290C290130FC0066201329023067
:0E021A00FC001A2013290430FC006D2008009F
:100228008312031342106508E700262042140800D1
:0E023800831203133E088A003D08820008006E
:1002460083120313F8010830FC00700DF80D7408D2
:10025600F80203183029F8070310F00DFC0B2829C3
:0202660008008E
:10026800831203136508F2007208F100F20A6608A7
:10027800F000E60A700884000008F00071088400A5
:100288007008800071088400000803194C29382977
:060298006508F0000800FB
:10029E0083120313FB017308031D77080319A629A4
:1002AE0072087606FA007708F3077E30031C63297E
:1002BE00F3020318A9296629F302031CAC2972085C
:1002CE00F8007108FC007008FD00F817F61703100F
:1002DE00F201F101F0011830A0007D1C8029740894
:1002EE00F00775080318750FF10776080318760FD7
:1002FE00F207F20CF10CF00CF80CFC0CFD0C0310D8
:10030E00A00B7429F21B9029F80DF00DF10DF20DD2
:10031E00F3037B1B701CA229F81FA229F00A0319F4
:10032E00F10A0319F20A031DA229F20CF10CF00CCA
:10033E00F30A0319A929FA1FF2130030AE2901306E
:10034E006620AE2902307120AE2904301A2000003A
:02035E00080095
:1003600083120313FA017308031D7A147708031D1F
:10037000FA147A080319FC29033A0319C7297A18D1
:10038000C429F61FFA29F829F21FF829FA29720858
:100390008039FA00F21376088039F6137A060319C9
:1003A000D5297A080319F829FA297708730203195D
:1003B000DC29031CF029F429760872020319E329C9
:1003C000031CF029F429750871020319EA29031C9A
:1003D000F029F429740870020319FC290318F42980
:1003E000FA080319FA29F829FA080319F829FA2949
:1003F0000314080003100800031403150800080084
:10040000831203137008F8007108F000F101F20183
:10041000F301FB01FC019630F300FA017008F100D2
:0C0420007808F000F801F201E520080067
:10042C00C330831203139F05C0309F005808F0009F
:10043C00F00D7010F00D701070089F0483169F174C
:10044C0083121F147D209F149F1C2E2A00002A2A21
:10045C001F101E08F100F00183161E08F004003076
:04046C00F10408008F
:1004700083120313FB01FA01F9018030F800F10C3B
:10048000F00C031C4C2A7408F90775080318750F43
:10049000FA070318FB0A0310F01F542A7408FA071E
:1004A00075080318750FFB07FB0CFA0CF90CF80C18
:1004B000031C3F2A7B08F3007A08F2007908F10058
:0604C0007808F0000800BE
:1004C60083120313E301E4015808DF005908E00032
:1004D6005A08E1005B08E2006208FF3A031D7D2A24
:1004E6006108FF3A031D7D2A6008FF3A031D7D2A35
:1004F6005F08FF3A031D872A5C08E5002130E60005
:1005060034210330F0005C2C0130DD00E11F962A17
:1005160080306106F0007008E100DD0A5C088400A6
:100526002D308000DC0A0030F0006206031DA52A8B
:1005360070086106031DA52A70086006031DA52A1A
:100546005F08003A031DAE2A5C08E5002930E60084
:100556003421F0015C2C6208FF3A031DBC2A6108B5
:10056600003A031DBC2A6008003A031DBC2A5F0836
:10057600003A031DC62A5C08E5002530E600342152
:100586005D08F0005C2C0030F4000030F50000300F
:10059600F6007F30F7005F08F0006008F1006108A0
:1005A600F2006208F300B021013003180030F000B9
:1005B60070080319F92A5F08F0006008F100610865
:1005C600F2006208F3000030F4000030F50020303D
:1005D600F6008230F7004F217008DF007108E00056
:1005E6007208E1007308E200E403C62A0030F40052
:1005F6000030F5002030F6008230F7005F08F0008A
:100606006008F1006108F2006208F300B0210130D1
:10061600031C0030F000700803192C2B5F08F00053
:100626006008F1006108F2006208F300CD30F400C2
:10063600CC30F5004C30F6007B30F7004F217008C7
:10064600DF007108E0007208E1007308E200E40AC6
:10065600F92AFF305F05F800FF306005F9007F30AA
:100666006105FA0000306205FB007808F40079089D
:10067600F5007A08F6007B08F700F40DF50DF60D87
:10068600F70D741000305F05F00000306005F100D2
:1006960000306105F200FF306205F3007008DF00EC
:1006A6007108E0007208E1007308E20074085F0454
:1006B600F00075086004F10076086104F20077081E
:1006C6006204F3007008DF007108E0007208E100C0
:1006D6007308E2007F306202F0007008DE0001302D
:1006E600E2007008F4005F08F0006008F10061089D
:1006F600F2006208F30074080319882BF00DF10D5F
:10070600F20DF30D7010FF3E7F2B7008DF007108AD
:10071600E0007208E1007308E2006208303EF00073
:100726005C08840070088000DC0A80306406F000F3
:100736008030013A7002031CA92B8030063AF00083
:10074600803064067002031CA92BB02B5C08840061
:100756002E308000DC0A0130E3000630DE005E0841
:10076600003A03190E2CE2015F08F0006008F10060
:100776006108F2006208F300F00DF10DF20DF30DC1
:100786007010F00DF10DF20DF30D70105F08F0070B
:1007960060080318600FF10761080318610FF2077C
:1007A60062080318620FF3077008DF007108E000A3
:1007B6007208E1007308E2005F08F0006008F100CB
:1007C6006108F2006208F300F00DF10DF20DF30D71
:1007D60070107008DF007108E0007208E10073080D
:1007E600E2006208303EF0005C0884007008800079
:1007F600DC0A6308003A031D0C2CE4036408003A83
:10080600031D0C2C5C0884002E308000DC0A0130AD
:10081600E300DE03B22BFF305C0784000008303AA9
:10082600031D172CDC030E2CFF305C078400000828
:100836002E3A031D1F2CDC036408003A0319582CBA
:100846005C08840065308000DC0A80306406F000B5
:100856008030003A70020318382C5C0884002D3072
:100866008000DC0A6408003CE4006408DE006408DA
:10087600093C03184A2C0A30F4005E08F0002321D4
:100886003030F0075C08840070088000DC0A0A300B
:10089600F4005E08F00023217808F0003030F007FD
:1008A6005C08840070088000DC0A5C088400800113
:0408B600F001080045
:1008BA001C218A110A128000840ABD0A0319BE0A81
:0808CA00F003031D5D2C080082
:1008D2000430831603178800890183128713881353
:1008E200FF3003138500FF30831685008520013019
:1008F200E70026200C30E7002620D3200D30FD0033
:06090200FD0B812C080032
:10090800962C803083120313D800A92CC030D8004D
:10091800A92C9430D800A92CD430D800A92C803028
:10092800D800A92C831203135808013A0319852CFF
:100938005808023A03198A2C5808033A03198D2CCF
:100948005808043A0319902C932C5903F0005808BE
:10095800F0077008D8007008E70026204210DB0175
:100968005B085A07840000080319C22C5B085A0761
:1009780084000008E5001421DB0AB42C42140800A6
:10098800382569240230D800162270088312C7005F
:100998007108C800F430F4000130F50038220A303C
:1009A800F2007008F4007108F50072080319E12CD0
:1009B800F50CF40CF513FF3EDA2C7408F0007508FA
:1009C800F10000227008C3007108C4007208C50055
:1009D8007308C6007008D8007108D9007208DA00D8
:1009E8007308DB004930DC0063220230D800013094
:1009F800D9002B30DA0084240330D8000630D9001F
:100A08004930DA0084240730FB001730FC006A30D4
:100A1800FD00FD0B0D2DFC0B0D2DFB0B0D2D00000E
:040A2800C62C152D96
:100A7000213084001C3083120313F0001B30BD00B2
:080A80000530BE005D240800F2
:080A36004E3461344E340034EB
:080A3E0049344E344634003403
:040A46003034003414
:100A4A00543465346D3470346534723461347434BA
:100A5A0075347234613420344C344D343334353483
:040A6A003A340034E6
:04400E00F22F000786
:00000001FF
