:020000002529B0
:0E000600213083120313FD00FD0B07280800B4
:06001400000000000800DE
:10001A000F3083120313FC004730FD00FD0B132839
:0A002A00FC0B132800000000080082
:1000340083120313BD1B20288613212886173D1B1A
:100044002528061326280617BD1A2A2886122B28C7
:1000540086163D1A2F28061230280616341834281E
:1000640006153528061186150A208611BD193C2867
:1000740086133D2886173D19412806134228061782
:10008400BD1846288612472886163D184B280612A6
:100094004C280616341850280615512806118615C2
:1000A4000A208611341C58280D20592803200800E2
:1000B4008312031334103C08BD001A2034140800C2
:0E00C4008312031337088A00360882000800F2
:1000D200831603138611061106128612061386135F
:1000E20083128611061186130613861206120D203C
:1000F2000D200D208616061686150A2086110D2063
:1001020086150A2086110D2086150A2086110D20DB
:10011200061286150A2086110D2086150A208611E0
:100122008612861786150A2086110D20861306165A
:1001320086150A208611061286150A2086110D20C0
:1001420086150A208611061686150A2086110D20AC
:10015200061286150A2086118617061786160616B7
:0C01620086150A2086110D2034140800B8
:10016E00C928803083120313B800DC28C030B800D1
:10017E00DC289430B800DC28D430B800DC2880307D
:10018E00B800DC28831203133808013A0319B82883
:10019E003808023A0319BD283808033A0319C02853
:1001AE003808043A0319C328C6283903F000380862
:1001BE00F0077008B8007008BD001A203410BB019B
:1001CE003B083A07840000080319F5283B083A0754
:1001DE0084000008BC005A20BB0AE728341408002B
:1001EE008316031398169030831298008316871780
:1001FE00071383128C1E06291A08F0000029080026
:0E020E000030831203138C1A0130F000080038
:10021C00831203131A08F100981C162918121816C9
:06022C007108F00008005B
:1002320062208A110A128000840AB60A0319B70AD8
:08024200F003031D1929080057
:10024A00443083120313A0006930A1007330A20066
:10025A007430A3006130A4006E30A5006330A6009C
:10026A006930A7006130A8002030A9005230AA00E6
:10027A006530AB006330AC006930AD006230AE006F
:10028A006930AF006430B0006130B1003A30B2007A
:10029A00B301831603178801890183128713881310
:1002AA0069200130BD001A200C30BD001A203330FD
:1002BA00831699001815F7200230FB000430FC0061
:1002CA00BA30FD00FD0B6729FC0B6729FB0B672978
:1002DA0000000130B8000130B9002030BA00B72060
:1002EA009430BD001A2007217008031982290E21B3
:0E02FA007008B5007008BC005A2078298329CE
:04400E00F22F000786
:00000001FF
