:040000008A1528280D
:06000600000000000800EC
:10000C000F3083120313FC004730FD00FD0B0C284E
:0A001C00FC0B0C2800000000080097
:0E002600213083120313FD00FD0B1728080084
:0E003400F201F101F001F801F30100300800C3
:10004200FB14FB1F2B28FF30F300F200F100F0003D
:08005200FA0DF20CFF3008006A
:10005A0083160313AC1B34288312861336288312A3
:10006A00861783162C1B3C28831206133E288312FC
:10007A0006178316AC1A442883128612462883125E
:10008A00861683162C1A4C28831206124E288312BF
:10009A0006166618522806155328061186150320D7
:1000AA0086118316AC195C28831286135E28831284
:1000BA00861783162C19642883120613662883125E
:1000CA0006178316AC186C28831286126E288312C0
:1000DA00861683162C187428831206127628831221
:1000EA00061666187A2806157B2806118615032037
:0E00FA008611661C8228062083281320080029
:08010800FA1FF2130030080099
:100110007B15FB1F92280130F300F201F101F00181
:08012000FA0DF20CFF3008009B
:10012800FF3083120313EA00FF30EB00FF30EC00CE
:10013800FF30C3309F05C0309F0083169F1783127E
:040148001F14080078
:0E014C008312031350088A004F088200080037
:10015A00831203132230FC00F801F901FA01FB01B2
:10016A00FC030319E3280310FB0CFA0CF90CF80C36
:10017A00F30CF20CF10CF00C031CB528FC03031968
:10018A00D5287408F80775080318750FF907760853
:10019A000318760FFA0777080318770FFB07B928B1
:1001AA007408F80775080318750FF9077608031815
:0E01BA00760FFA0777080318770FFB07080087
:1001C80083160313981690308312980083168717A6
:1001D800071383128C1EF3281A08F000ED28080074
:1001E80083120313FA017308031D7A147708031D99
:1001F800FA147A0803194029033A03190B297A18C3
:100208000829F61F3E293C29F21F3C293E2972087D
:100218008039FA00F21376088039F6137A06031942
:1002280019297A0803193C293E297708730203190A
:100238002029031C34293829760872020319272932
:10024800031C342938297508710203192E29031C47
:1002580034293829740870020319402903183829E9
:10026800FA0803193E293C29FA0803193C293E29B2
:1002780003140800031008000314031508000800FD
:10028800831603132A08F2007208F100F20A2B08F9
:10029800F000AB0A700884000008F00071088400C0
:1002A8007008800071088400000803195C29482937
:0602B8002A08F000080016
:1002BE008316031386110611061286120613861371
:1002CE008312861106118613061386120612062055
:1002DE000620062086160616861503208611062091
:1002EE00861503208611062086150320861106200A
:1002FE000612861503208611062086150320861108
:10030E00861286178615032086110620861306167A
:10031E0086150320861106128615032086110620E7
:10032E0086150320861106168615032086110620D3
:10033E0006128615032086118617061786160616D0
:0C034E00861503208611062066140800A6
:10035A000E3083120313FD00FD0BB12900000800C3
:10036A00A1017208031DCA297108F2007008F10080
:10037A00F001A1157208031DCA297108F200F101E2
:10038A00A111211672080319D8292108F302031DA5
:10039A00031CDC290310F21BE029F00DF10DF20D0C
:1003AA00F30BD029DC290130FC001A20E3290230A2
:0E03BA00FC008820E3290430FC0084200800A9
:1003C80083120313F8010830FC00700DF80D74084F
:1003D800F8020318F129F8070310F00DFC0BE929BE
:0203E80008000B
:1003EA0083120313F801F9011030FC00710DF80DA6
:1003FA00F90D7408F8027508031C750FF902031841
:10040A000D2A7408F80775080318750FF907031001
:0A041A00F00DF10DFC0BFB290800AA
:1004240083120313FB017308031D77080319692A58
:1004340072087606FA007708F3077E30031C262A32
:10044400F30203186C2A292AF302031C6F2A720888
:10045400F8007108FC007008FD00F817F617031087
:10046400F201F101F0011830A1007D1C432A740847
:10047400F00775080318750FF10776080318760F4F
:10048400F207F20CF10CF00CF80CFC0CFD0C031050
:10049400A10B372AF21B532AF80DF00DF10DF20DC2
:1004A400F3037B1B701C652AF81F652AF00A0319E5
:1004B400F10A0319F20A031D652AF20CF10CF00C7F
:1004C400F30A03196C2AFA1FF2130030712A01305F
:1004D4001A20712A02302120712A04308820000059
:0204E40008000E
:1004E60083120313FB01FA01F901F801A001730D50
:1004F600F80D7408F8027508031C750FF9027608E2
:10050600031C760FFA027708031C770FFB02000123
:10051600031C0130A002F30D0730FC00730DF80D2B
:10052600F90DFA0DFB0DA00D7408731CAC2AF80228
:100536007508031C750FF9027608031C760FFA027C
:100546007708031C770FFB020001031C0130A00291
:10055600BD2AF80775080318750FF90776080318FA
:10056600760FFA0777080318770FFB0700010318C1
:100576000130A007F30DFC0B912A720DF80DF90D51
:10058600FA0DFB0DA00D7408731CDB2AF802750822
:10059600031C750FF9027608031C760FFA0277081A
:1005A600031C770FFB020001031C0130A002EC2A9A
:1005B600F80775080318750FF90776080318760FFC
:1005C600FA0777080318770FFB07000103180130B5
:1005D600A007F20D0730FC00720DF80DF90DFA0DAB
:1005E600FB0DA00D7408721C0A2BF8027508031C7B
:1005F600750FF9027608031C760FFA027708031CBA
:10060600770FFB020001031C0130A0021B2BF80729
:1006160075080318750FF90776080318760FFA0799
:1006260077080318770FFB07000103180130A007AE
:10063600F20DFC0BEF2A710DF80DF90DFA0DFB0DFD
:10064600A00D7408721C392BF8027508031C750F6F
:10065600F9027608031C760FFA027708031C770F57
:10066600FB020001031C0130A0024A2BF8077508A3
:100676000318750FF90776080318760FFA07770837
:100686000318770FFB07000103180130A007F10DCF
:100696000730FC00710DF80DF90DFA0DFB0DA00DDC
:1006A6007408711C682BF8027508031C750FF90293
:1006B6007608031C760FFA027708031C770FFB02F5
:1006C6000001031C0130A002792BF80775080318F6
:1006D600750FF90776080318760FFA0777080318D7
:1006E600770FFB07000103180130A007F10DFC0B83
:1006F6004D2B700DF80DF90DFA0DFB0DA00D7408BC
:10070600711C972BF8027508031C750FF902760801
:10071600031C760FFA027708031C770FFB02000111
:10072600031C0130A002A82BF80775080318750FE3
:10073600F90776080318760FFA0777080318770F74
:10074600FB07000103180130A007F00D0730FC007D
:10075600700DF80DF90DFA0DFB0DA00D7408701C47
:10076600C62BF8027508031C750FF9027608031CE0
:10077600760FFA027708031C770FFB020001031CB1
:100786000130A002D72BF80775080318750FF90773
:1007960076080318760FFA0777080318770FFB0712
:1007A600000103180130A007F00DFC0BAB2B7018ED
:1007B600EA2B7408F80775080318750FF907760809
:1007C6000318760FFA0777080318770FFB07080058
:1007D600403083120313F0001F30F100F201F301E1
:0207E600080009
:1007E80083120313661083162A08AC002D206614A2
:0207F8000800F7
:1007FA0083160313AA03AA032A08003C03180A2C27
:10080A00AA03000000000000012C00000000000004
:06081A00000000000800D0
:10082000831203137008F8007108F000F101F2015F
:10083000F301FB01FC019630F300FA017008F100AE
:0C0840007808F000F801F201B521080072
:10084C00831203136D08E7006E08F1000130F0000D
:10085C0071080319352CF00D7010FF3E2F2C700809
:10086C00E900F0097008E80080306D07840070081A
:0A087C008005841370088005080051
:1008860083120313FB01FA01F9018030F800F10C21
:10089600F00C031C572C7408F90775080318750F1C
:1008A600FA070318FB0A0310F01F5F2C7408FA07F7
:1008B60075080318750FFB07FB0CFA0CF90CF80CFE
:1008C600031C4A2C7B08F3007A08F2007908F10031
:0608D6007808F0000800A4
:1008DC00C330831203139F05C0309F006D08F000D6
:1008EC00F00D7010F00D701070089F0483169F1798
:1008FC0083121F14AD219F149F1C862C0000822C88
:10090C001F101E08F100F00183161E08F0040030C1
:04091C00F1040800DA
:10092000EB23E830F4000330F500F601F701AD20C9
:1009300070088316A6007108A7007208A800730843
:10094000A9002008F4002108F500F601F701732240
:1009500070088316A6007108A7007208A800730823
:10096000A9007008F5007108F6007208F700730816
:10097000F800F80CF70CF60CF50CF813F80CF70C63
:10098000F60CF50CF8137508F0007608F1007708FE
:10099000F2007808F300F30CF20CF10CF00CF313F6
:1009A00070088312ED007108EE00EB238316220815
:1009B000F4002308F500F601F701AD206D08F900F9
:1009C0006E08FA00FB01FC010330F8007908F4001E
:1009D0007A08F5007B08F6007C08F7007808031910
:1009E000F82CF40DF50DF60DF70D7410FF3EEF2CFD
:1009F000732270088316A6007108A7007208A80069
:100A00007308A9000A30F4000030F50083126D0865
:100A1000F0006E08F100F5217008ED007108EE009D
:100A200000307102031D162D033070020318192DBA
:100A3000742D6708840083162908003C031D2A2DA5
:100A40002808003C031D2A2D2708003C031D2A2DE1
:100A50002608003C0318712D8312690880046E0873
:100A60000319452D8316A401A50100302502031D9D
:100A70003D2D83126E08831624020318452DAA010A
:100A8000FD23A40A0319A50A352D83126D088316C8
:100A9000AA00FD238312680880056E080319632DE0
:100AA0008316A401A50100302502031D5B2D8312CE
:100AB0006E08831624020318632DAA01FD23A40ADD
:100AC0000319A50A532D83126D088316AA00FD236E
:100AD0000130A602031CA702031CA802031CA902E2
:0A0AE0001B2D831268088005080032
:100AEA00A6208A110A128000840ACF0A0319D00AA2
:080AFA00F003031D752D080037
:100B020083120313EF018316A9012008A50021080F
:100B1200A6002208A7002308A8002808FF3A031D00
:100B22009C2D2708FF3A031D9C2D2608FF3A031D22
:100B32009C2D2508FF3A031DA62D2408AA004B3040
:100B4200AB0044210330F000972F01308312ED00F7
:100B52008316A71FB92D80302706F0007008A70062
:100B62008312ED0A8316240884002D308000A40A23
:100B72000030F0002806031DC82D70082706031D4B
:100B8200C82D70082606031DC82D2508003A031D2E
:100B9200D12D2408AA003830AB004421F001972F50
:100BA2002808FF3A031DDF2D2708003A031DDF2D19
:100BB2002608003A031DDF2D2508003A031DEA2D01
:100BC2002408AA003430AB00442183126D08F000DF
:100BD200972F0030F4000030F5000030F6007F302F
:100BE200F70083162508F0002608F1002708F20016
:100BF2002808F300F420013003180030F0007008D8
:100C02000319202E83162508F0002608F100270874
:100C1200F2002808F3000030F4000030F500203024
:100C2200F6008230F700122270088316A5007108C0
:100C3200A6007208A7007308A800A903EA2D83166C
:100C42000030F4000030F5002030F6008230F7006A
:100C52002508F0002608F1002708F2002808F30012
:100C6200F4200130031C0030F00070080319562EE6
:100C720083162508F0002608F1002708F20028084C
:100C8200F300CD30F400CC30F5004C30F6007B3070
:100C9200F700122270088316A5007108A6007208D8
:100CA200A7007308A800A90A202E8316FF30250585
:100CB200F800FF302605F9007F302705FA000030E2
:100CC2002805FB007808F4007908F5007A08F60098
:100CD2007B08F700F40DF50DF60DF70D74100030DA
:100CE2002505F00000302605F10000302705F2004E
:100CF200FF302805F3007008A5007108A6007208ED
:100D0200A7007308A80074082504F00075082604DB
:100D1200F10076082704F20077082804F30070082F
:100D2200A5007108A6007208A7007308A8007F300A
:100D32002802F00070088312EE0001308316A8002A
:100D42007008F4002508F0002608F1002708F200D8
:100D52002808F30074080319B52EF00DF10DF20DF9
:100D6200F30D7010FF3EAC2E7008A5007108A600AE
:100D72007208A7007308A8002808303EF000240873
:100D8200840070088000A40A80302906F0008030B8
:100D9200013A7002031CD62E8030063AF0008030F1
:100DA20029067002031CD62EDE2E240884002E3063
:100DB2008000A40A01308312EF0083120630EE0095
:100DC2006E08003A0319422F8316A8012508F00085
:100DD2002608F1002708F2002808F300F00DF10DB3
:100DE200F20DF30D7010F00DF10DF20DF30D701008
:100DF2002508F00726080318260FF107270803180D
:100E0200270FF20728080318280FF3077008A50018
:100E12007108A6007208A7007308A8002508F00050
:100E22002608F1002708F2002808F300F00DF10D62
:100E3200F20DF30D70107008A5007108A60072087B
:100E4200A7007308A8002808303EF0002408840098
:100E520070088000A40A83126F08003A031D3F2F16
:100E62008316A9032908003A031D3F2F2408840092
:100E72002E308000A40A01308312EF008312EE03A9
:100E8200E12EFF308316240784000008303A031D48
:100E92004C2FA403422FFF302407840000082E3A6F
:100EA200031D542FA4032908003A0319932F240881
:100EB200840065308000A40A80302906F00080306A
:100EC200003A700203186D2F240884002D30800030
:100ED200A40A2908003CA90029088312EE008316FF
:100EE2002908093C0318832F0A30F40083126E0884
:100EF200F000E4213030F0078316240884007008E3
:100F02008000A40A0A30F40083126E08F000E42183
:100F12007808F0003030F007831624088400700847
:0E0F22008000A40A240884008001F001080069
:100F3000AA2F803083120313ED00BD2FC030ED00C7
:100F4000BD2F9430ED00BD2FD430ED00BD2F80308B
:100F5000ED00BD2F831203136D08013A0319992F79
:100F60006D08023A03199E2F6D08033A0319A12F49
:100F70006D08043A0319A42FA72F6E03F0006D0823
:100F8000F0077008ED0070088316AC002D20661085
:100F90008316A001200883126F078400000803193C
:100FA000DD2F8316200883126F0784000008831644
:100FB000AA00F4238316A00ACA2F8312661408001D
:100FC000223084002D3083120313F000CC30CF0088
:080FD0000830D000752508006F
:1010000004308316031788008901F7300313850025
:10101000831285158A115F218A1501308316AC0071
:101020008A112D208A150C308316AC008A112D20D0
:101030008A1533308316990018158A11E4208A1511
:101040008A1194208A150D30FD00FD0B252808001B
:101050008A11E0278A1500200230ED008A116E24E3
:101060008A1570088312D1007108D200F430F400A0
:101070000130F5008A1143248A150A30F200700805
:10108000F4007108F500720803194B28F50CF40CF4
:10109000F513FF3E44287408F0007508F1008A112A
:1010A00010248A157008E2007108E3007208E40059
:1010B0007308E50070088316A0007108A10072088B
:1010C000A2007308A3005330A4008A1181258A1559
:1010D000023083120313ED000130EE002230EF00E6
:1010E0008A1198278A150330ED000630EE00533040
:1010F000EF008A1198278A156208F4006308F5004A
:101100006408F6006508F7000030F0000030F100D8
:101110003430F2008430F3008A11F4208A15013053
:1011200003180030F00070080319C7288511093032
:10113000ED00EE018A1126248A150518AB28E83047
:101140008316A0000330A100FA30A200A3018A1187
:1011500090248A159D2801308316AC008A112D2019
:101160008A150230ED000130EE003A30EF008A11AE
:1011700098278A151F30FB007130FC001E30FD00DF
:10118000FD0BC028FC0BC028FB0BC02800002C283E
:02119000C8286D
:10119800543465346D347034653472346134743465
:1011A80075347234613420344C344D34333435342E
:0411B8003A34003491
:0811BC0049344E34463400347E
:0411C400303400348F
:1011C8005634653468346934633475346C346F3438
:1011D80020344134703461346734613464346F349A
:0211E8000034D1
:0811EA004E3461344E34003430
:04400E00F22F000786
:00000001FF
