:040000008A15142A1F
:0E000600213083120313FD00FD0B07280800B4
:100014000F3083120313FC004730FD00FD0B102842
:0A002400FC0B10280000000008008B
:06002E00000000000800C4
:08003400FA1FF213003008006E
:10003C007B15FB1F28280130F300F201F101F001C0
:08004C00FA0DF20CFF30080070
:1000540083120317AC1B30288613312886172C1BF8
:100064003528061336280617AC1A3A2886123B2878
:1000740086162C1A3F280612402806161218442801
:10008400061545280611861517208611AC194C282B
:1000940086134D2886172C19512806135228061743
:1000A400AC1856288612572886162C185B28061278
:1000B4005C28061612186028061561280611861594
:1000C40017208611121C68280A20692803200800BA
:0E00D400F201F101F001F801F3010030080023
:1000E200FB14FB1F7B28FF30F300F200F100F0004D
:0800F200FA0DF20CFF300800CA
:1000FA000E3083120313FD00FD0B81280000080057
:0E010A00831603136E088A006D088200080039
:10011800831203132230FC00F801F901FA01FB01F4
:10012800FC030319C2280310FB0CFA0CF90CF80C99
:10013800F30CF20CF10CF00C031C9428FC030319CB
:10014800B4287408F80775080318750FF9077608B6
:100158000318760FFA0777080318770FFB07982814
:100168007408F80775080318750FF9077608031857
:0E017800760FFA0777080318770FFB070800C9
:10018600831203172708F2007208F100F20A280802
:10019600F000A80A700884000008F00071088400C6
:1001A600700880007108840000080319DB28C7283E
:0601B6002708F00008001C
:1001BC00403083120313F0001F30F100F201F30101
:0201CC00080029
:1001CE008316031386110611061286120613861362
:1001DE0083128611061186130613861206120A2042
:1001EE000A200A20861606168615172086110A2062
:1001FE008615172086110A208615172086110A20CB
:10020E0006128615172086110A20861517208611CC
:10021E00861286178615172086110A208613061653
:10022E0086151720861106128615172086110A20AC
:10023E0086151720861106168615172086110A2098
:10024E0006128615172086118617061786160616AD
:0E025E008615172086110A20031712140800B7
:10026C0083120313FB01FA01F901F801A001730DCC
:10027C00F80D7408F8027508031C750FF90276085E
:10028C00031C760FFA027708031C770FFB020001A0
:10029C00031C0130A002F30D0730FC00730DF80DA8
:1002AC00F90DFA0DFB0DA00D7408731C6F29F802E3
:1002BC007508031C750FF9027608031C760FFA02F9
:1002CC007708031C770FFB020001031C0130A0020E
:1002DC008029F80775080318750FF90776080318B5
:1002EC00760FFA0777080318770FFB07000103183E
:1002FC000130A007F30DFC0B5429720DF80DF90D0C
:10030C00FA0DFB0DA00D7408731C9E29F8027508DC
:10031C00031C750FF9027608031C760FFA02770896
:10032C00031C770FFB020001031C0130A002AF2954
:10033C00F80775080318750FF90776080318760F78
:10034C00FA0777080318770FFB0700010318013031
:10035C00A007F20D0730FC00720DF80DF90DFA0D27
:10036C00FB0DA00D7408721CCD29F8027508031C36
:10037C00750FF9027608031C760FFA027708031C36
:10038C00770FFB020001031C0130A002DE29F807E5
:10039C0075080318750FF90776080318760FFA0716
:1003AC0077080318770FFB07000103180130A0072B
:1003BC00F20DFC0BB229710DF80DF90DFA0DFB0DB8
:1003CC00A00D7408721CFC29F8027508031C750F2B
:1003DC00F9027608031C760FFA027708031C770FD4
:1003EC00FB020001031C0130A0020D2AF80775085E
:1003FC000318750FF90776080318760FFA077708B4
:10040C000318770FFB07000103180130A007F10D4B
:10041C000730FC00710DF80DF90DFA0DFB0DA00D58
:10042C007408711C2B2AF8027508031C750FF9024D
:10043C007608031C760FFA027708031C770FFB0271
:10044C000001031C0130A0023C2AF80775080318B0
:10045C00750FF90776080318760FFA077708031853
:10046C00770FFB07000103180130A007F10DFC0BFF
:10047C00102A700DF80DF90DFA0DFB0DA00D740876
:10048C00711C5A2AF8027508031C750FF9027608BC
:10049C00031C760FFA027708031C770FFB0200018E
:1004AC00031C0130A0026B2AF80775080318750F9E
:1004BC00F90776080318760FFA0777080318770FF1
:1004CC00FB07000103180130A007F00D0730FC00FA
:1004DC00700DF80DF90DFA0DFB0DA00D7408701CC4
:1004EC00892AF8027508031C750FF9027608031C9B
:1004FC00760FFA027708031C770FFB020001031C2E
:10050C000130A0029A2AF80775080318750FF9072D
:10051C0076080318760FFA0777080318770FFB078E
:10052C00000103180130A007F00DFC0B6E2A7018A7
:10053C00AD2A7408F80775080318750FF9077608C3
:10054C000318760FFA0777080318770FFB070800D4
:10055C00A1017208031DC32A7108F2007008F10092
:10056C00F001A1157208031DC32A7108F200F101F4
:10057C00A111211672080319D12A2108F302031DB7
:10058C00031CD52A0310F21BD92AF00DF10DF20D24
:10059C00F30BC92AD52A0130FC006A20DC2A023070
:0E05AC00FC001E20DC2A0430FC001A2008008F
:1005BA00FF30831203179700FF309800FF3099002D
:1005CA00FF30C33003139F05C0309F0083169F1767
:0605DA0083121F1408004B
:1005E00083120317A701A901AA011030AB00043040
:1005F0002A020318202BF0300313880003172B095D
:10060000831603138800172017200F308312080564
:10061000F00070080317A800700803191A2B2908A6
:10062000A70028080319182BA80CA813A70A112B38
:100630000430AA00AB0D2B100430A907AA0AF72A30
:060640002708F00008008D
:10064600063083120313FD00FD0B272B0000080064
:100656008312031712102708AC002A20031712145E
:0206660008008A
:1006680083120313F8010830FC00700DF80D7408AC
:10067800F8020318412BF8070310F00DFC0B392B77
:02068800080068
:10068A0083120313FB017308031D770803199C2BBC
:10069A0072087606FA007708F3077E30031C592B96
:1006AA00F30203189F2B5C2BF302031CA22B720884
:1006BA00F8007108FC007008FD00F817F61703101F
:1006CA00F201F101F0011830A1007D1C762B7408AB
:1006DA00F00775080318750FF10776080318760FE7
:1006EA00F207F20CF10CF00CF80CFC0CFD0C0310E8
:1006FA00A10B6A2BF21B862BF80DF00DF10DF20DF2
:10070A00F3037B1B701C982BF81F982BF00A031914
:10071A00F10A0319F20A031D982BF20CF10CF00CE2
:10072A00F30A03199F2BFA1FF2130030A42B01308E
:10073A006A20A42B02307120A42B04301E20000052
:02074A000800A5
:10074C0083120317A703A7032708003C0318B32B36
:10075C00A703000000000000AA2B0000000000000E
:06076C000000000008007F
:10077200831203172708F2007208F000F20A7008C9
:10078200840000080319C62BBD2B27087202F00053
:0C0792000130F002F101031CF10308002B
:10079E00831603139818D52B0000CF2B8312031743
:0807AE0027080313990008005D
:1007B60083120313F801F9011030FC00710DF80DD6
:1007C600F90D7408F8027508031C750FF902031871
:1007D600F32B7408F80775080318750FF90703104B
:0A07E600F00DF10DFC0BE12B0800F3
:1007F0008316031398169030831298008316871778
:10080000071383128C1E072C1A08F000012C080015
:1008100083120313FA017308031D7A147708031D6A
:10082000FA147A080319542C033A03191F2C7A1866
:100830001C2CF61F522C502CF21F502C522C7208DC
:100840008039FA00F21376088039F6137A06031914
:100850002D2C7A080319502C522C77087302031997
:10086000342C031C482C4C2C7608720203193B2CA8
:10087000031C482C4C2C750871020319422C031CD4
:10088000482C4C2C740870020319542C03184C2C5F
:10089000FA080319522C502CFA080319502C522C28
:1008A00003140800031008000314031508000800CF
:1008B000F02270089A000F3003130805F0000319A6
:0E08C000632C23235B2C03171A08F00008009A
:1008CE00831203171A08F2001C08F0001D08F1002D
:1008DE0001309C02031C9D037008710403197D2CCA
:1008EE00720884001B088000F20A6B2C1A08F000B4
:0208FE000800F0
:10090000831203137008F8007108F000F101F2017E
:10091000F301FB01FC019630F300FA017008F100CD
:0C0920007808F000F801F201AE22080097
:10092C0083120313FB01FA01F9018030F800F10C7A
:10093C00F00C031CAA2C7408F90775080318750F22
:10094C00FA070318FB0A0310F01FB22C7408FA07FD
:10095C0075080318750FFB07FB0CFA0CF90CF80C57
:10096C00031C9D2C7B08F3007A08F2007908F10037
:06097C007808F0000800FD
:10098200DE20E830F4000330F500F601F7018C2098
:1009920070080317A2007108A3007208A40073086C
:1009A200A5001A08F4001B08F500F601F70136212C
:1009B20070080317A2007108A3007208A40073084C
:1009C200A5007008F5007108F6007208F7007308B8
:1009D200F800F80CF70CF60CF50CF813F80CF70C01
:1009E200F60CF50CF8137508F0007608F10077089C
:1009F200F2007808F300F30CF20CF10CF00CF31394
:100A020070089E0071089F00DE2003171C08F40086
:100A12001D08F500F601F7018C2003171E08F900E6
:100A22001F08FA00FB01FC010330F8007908F4000A
:100A32007A08F5007B08F6007C08F70078080319AD
:100A4200292DF40DF50DF60DF70D7410FF3E202D36
:100A5200362170080317A2007108A3007208A400CF
:100A62007308A5000A30F4000030F5001E08F000FB
:100A72001F08F100DB23700803179E0071089F0016
:100A820000307102031D472D0330700203184A2DF6
:100A9200972D150884002508003C031D5A2D2408B3
:100AA200003C031D5A2D2308003C031D5A2D220829
:100AB200003C0318952D140880041F080319712D9A
:100AC200A001A10100302102031D692D1F0820028F
:100AD2000318712DA701A623A00A0319A10A632DE9
:100AE2001E08A700A623130880051F080319892DD5
:100AF200A001A10100302102031D812D1F08200247
:100B02000318892DA701A623A00A0319A10A7B2D88
:100B12001E08A700A6230130A202031CA302031C85
:0E0B2200A402031CA5024C2D13088005080038
:100B3000C330831203139F05C0309F0003171A08A8
:100B4000F000F00D7010F00D7010700803139F048A
:100B500083169F1783121F147D209F149F1CB22D94
:100B60000000AE2D1F101E08F100F00183161E08B4
:080B7000F0040030F10408005C
:100B7800831203171C0884000008F00070081A0785
:100B880084001B0880001C088400000AF0001C0870
:080B98008400700880000800D1
:100BA000E22D8030831203179A00F52DC0309A0091
:100BB000F52D94309A00F52DD4309A00F52D803023
:100BC0009A00F52D831203171A08013A0319D12D43
:100BD0001A08023A0319D62D1A08033A0319D92D17
:100BE0001A08043A0319DC2DDF2D1B03F0001A0844
:100BF000F00770089A007008AC002A200317121042
:100C00009D011D081C078400000803190F2E1D08F4
:100C10001C0784000008A7002B239D0A012E121434
:020C20000800CA
:100C2200232E8030831203179A00362EC0309A008A
:100C3200362E94309A00362ED4309A00362E8030DA
:100C42009A00362E831203171A08013A0319122E3C
:100C52001A08023A0319172E1A08033A03191A2E10
:100C62001A08043A03191D2E202E1B03F0001A083D
:100C7200F00770089A0012147008AC002A200317BB
:0E0C820012101C08AC002A20031712140800E0
:100C9000831203171A08A700B92370089B00710874
:100CA0009C000B30FB002630FC005D30FD00FD0B8E
:100CB000572EFC0B572EFB0B572E000000009D01FA
:100CC0009E0180301E06F00080301C067002031D5D
:100CD0006B2E1B081D020318812E1D081A078400A5
:100CE0000008A700CF231A30FC00F830FD00FD0BF0
:100CF000772EFC0B772E000003179D0A03199E0A1E
:040D0000612E080058
:100D0400831203171A0895001B08F1000130F00044
:100D140071080319912EF00D7010FF3E8B2E700890
:100D24009400F0097008930080301A07840070085A
:0A0D34008005841370088005080094
:100D3E0004308316031788008901F73003138500EA
:100D4E0083128515803083168700803083128700CA
:100D5E00E7200130AC002A200C300317AC002A200B
:0E0D6E003330831699001815F823DD22080093
:100D7C0085208A110A128000840AED0A0319EE0AF2
:080D8C00F003031DBE2E080058
:100E9800223084004A3083120313F000CA308316CC
:100EA800ED000630EE00BE26A03084002C3003137F
:100EB800F00014308316ED000730EE00BE266C30CB
:100EC800840002300313F00049308316ED00073028
:100ED800EE00BE26CC30840009300313F000403009
:0C0EE8008316ED000730EE00BE26080067
:1010000083120317A501A6011A08A1001B08A2005C
:101010001C08A3001D08A4002408FF3A031D1A2879
:101020002308FF3A031D1A282208FF3A031D1A2835
:101030002108FF3A031D26281E08A7006830A800D3
:101040008A11C3208A150330F000132A01309F0053
:10105000A31F352880302306F0007008A3009F0AE4
:101060001E0884002D3080009E0A0030F000240607
:10107000031D442870082306031D44287008220617
:10108000031D44282108003A031D4F281E08A7000D
:101090006630A8008A11C3208A15F001132A24089B
:1010A000FF3A031D5D282308003A031D5D2822082E
:1010B000003A031D5D282108003A031D69281E0817
:1010C000A7006230A8008A11C3208A151F08F0000B
:1010D000132A0030F4000030F5000030F6007F30B5
:1010E000F7002108F0002208F1002308F20024088C
:1010F000F3008A1108248A15013003180030F0002B
:1011000070080319A22803172108F0002208F10033
:101110002308F2002408F3000030F4000030F5004A
:101120002030F6008230F7008A1145238A157008B6
:101130000317A1007108A2007208A3007308A4009D
:10114000A603692803170030F4000030F5002030B2
:10115000F6008230F7002108F0002208F100230891
:10116000F2002408F3008A1108248A150130031CB8
:101170000030F00070080319DC2803172108F00084
:101180002208F1002308F2002408F300CD30F40017
:10119000CC30F5004C30F6007B30F7008A11452347
:1011A0008A1570080317A1007108A2007208A30035
:1011B0007308A400A60AA2280317FF302105F8002F
:1011C000FF302205F9007F302305FA0000302405A6
:1011D000FB007808F4007908F5007A08F6007B082F
:1011E000F700F40DF50DF60DF70D74100030210524
:1011F000F00000302205F10000302305F200FF303E
:101200002405F3007008A1007108A2007208A30071
:101210007308A40074082104F00075082204F1008A
:1012200076082304F20077082404F3007008A10074
:101230007108A2007208A3007308A4007F30240282
:10124000F0007008A0000130A4007008F40021082C
:10125000F0002208F1002308F2002408F3007408CB
:1012600003193929F00DF10DF20DF30D7010FF3E49
:1012700030297008A1007108A2007208A300730849
:10128000A4002408303EF0001E088400700880008E
:101290009E0A80302606F0008030013A7002031C5E
:1012A0005A298030063AF000803026067002031C6E
:1012B0005A2961291E0884002E3080009E0A0130C0
:1012C000A5000630A0002008003A0319BF29A40198
:1012D0002108F0002208F1002308F2002408F3009E
:1012E000F00DF10DF20DF30D7010F00DF10DF20D8A
:1012F000F30D70102108F00722080318220FF107E0
:1013000023080318230FF20724080318240FF307F8
:101310007008A1007108A2007208A3007308A4005D
:101320002108F0002208F1002308F2002408F3004D
:10133000F00DF10DF20DF30D70107008A1007108A1
:10134000A2007208A3007308A4002408303EF00035
:101350001E088400700880009E0A2508003A031DBC
:10136000BD29A6032608003A031DBD291E088400D6
:101370002E3080009E0A0130A500A0036329FF30B3
:101380001E0784000008303A031DC8299E03BF29A8
:10139000FF301E07840000082E3A031DD0299E034B
:1013A0002608003A03190F2A1E08840065308000C1
:1013B0009E0A80302606F0008030003A7002031842
:1013C000E9291E0884002D3080009E0A2608003C72
:1013D000A6002608A0002608093C0318FE290A30AA
:1013E000F4002008F0008A1134238A153030F00709
:1013F00003171E088400700880009E0A0A30F4005B
:101400002008F0008A1134238A157808F000303063
:10141000F00703171E088400700880009E0A1E084B
:0814200084008001F0010800C6
:101428008A114C278A158A119F268A150313831659
:10143800EF018312031792110030921901309000C6
:101448001018282A1211292A121512192D2A921059
:101458002E2A921400309218013091000130AC000D
:101468008A112A208A150C300317AC008A112A2009
:101478008A15013003179A0006309B0044309C00FF
:101488008A11D0258A1502309A0001309B0032302B
:101498009C008A11D0258A1503309A0001309B00E0
:1014A80022309C008A11D0258A15D530A7008A11D0
:1014B800B9238A1570089C0071089D00D5309A00E0
:1014C8009B018A1167248A158A1158248A15700885
:1014D800910070080319682A762C0130AC008A1133
:1014E8002A208A158A1158248A157008831603132E
:1014F800EF000230831203179A008A1198258A1583
:1015080070088312EE007108EF00F430F400013027
:10151800F5008A1196248A150A30F2007008F40042
:101528007108F500720803199E2AF50CF40CF513DE
:10153800FF3E972A7408F0007508F1008A1180248C
:101548008A1570088316E9007108EA007208EB0032
:101558007308EC007008831203179A0071089B0047
:1015680072089C0073089D00DA309E00002002304B
:101578009A0001309B0050309C008A11D0258A15B2
:1015880003309A0006309B00DA309C008A11D0257F
:101598008A15831603136908F4006A08F5006B08B6
:1015A800F6006C08F7000030F0000030F10034302D
:1015B800F2008430F3008A1108248A1501300318D8
:1015C8000030F00070080319202B8511093003172B
:1015D8009A009B018A1182268A1503130518022B8B
:1015E80003179218022BE8309A0003309B00FA3058
:1015F8009C009D018A11C1248A15F12A03179214AF
:101608000130AC008A112A208A15023003179A008B
:1016180001309B00B1309C008A11D0258A152930F1
:10162800FB009630FC007F30FD00FD0B192BFC0BF6
:10163800192BFB0B192B222B03179210831603135C
:101648006F080319762A7E2C831203171219752C3A
:1016580096010130AC008A112A208A150C30031734
:10166800AC008A112A208A15013003179A0001302C
:101678009B00A0309C008A11D0258A1504309A005E
:1016880001309B00C2309C008A11D0258A15043095
:101698009A000B309B00CC309C008A11D0258A150B
:1016A8008A1158248A157008960070080319542B5B
:1016B800442CD5309A0031309B0010309C008A11A0
:1016C800BC258A153130960003309A0004309B00FF
:1016D8006C309C008A11D0258A15742CD5309A005C
:1016E80032309B0010309C008A11BC258A1532309C
:1016F800960002309A0004309B0032309C008A1118
:1017080011268A15742CD5309A0033309B0010307E
:101718009C008A11BC258A153330960002309A0045
:1017280004309B0033309C008A1111268A15742CD2
:10173800D5309A0034309B0010309C008A11BC25AB
:101748008A153430960002309A0004309B003430F9
:101758009C008A1111268A15742C35309600D530D4
:101768009A0035309B0010309C008A11BC258A15E0
:101778003530960002309A0004309B0035309C00CA
:101788008A1111268A15742C36309600D5309A00A5
:1017980036309B0010309C008A11BC258A153630E3
:1017A800960002309A0004309B0036309C008A1163
:1017B80011268A15742C37309600D5309A003730A8
:1017C8009B0010309C008A11BC258A153730960082
:1017D80002309A0004309B0037309C008A11112691
:1017E8008A15742C38309600D5309A0038309B0012
:1017F80010309C008A11BC258A15383096000230BA
:101808009A0004309B0038309C008A1111268A15F2
:10181800742C39309600D5309A0039309B0010303E
:101828009C008A11BC258A153930960002309A002E
:1018380004309B0039309C008A1111268A15742CBB
:101848001215D5309A008A1148268A15742C303022
:101858009600D5309A0030309B0010309C008A11D9
:10186800BC258A153030960002309A0004309B005F
:1018780069309C008A1111268A15742C1215742C53
:101888001608013A03195D2B1608023A0319722B40
:101898001608033A0319872B1608053A03199C2BD7
:1018A8001608063A0319B12B1608073A0319C82B6C
:1018B8001608093A0319DF2B16080A3A0319F62BFA
:1018C80016080B3A03190D2C16080D3A0319242C87
:1018D80016080E3A03192B2C16080F3A0319422C36
:1018E800282B7E2C1108013A0319712A1108023A93
:0818F8000319282B1A2A7F2C8A
:100D9400323429345334653474342034443469345B
:100DA4007334743461346E346334693461340034BC
:100DB400313429345634653472342034543465342F
:100DC4006D3470346534723461347434753472340F
:040DD4006134003452
:100DD800533465346C3465346334633469346F3444
:080DE8006E3465343A34003426
:100DF000543465346D347034653472346134743411
:100E000075347234613420344C344D3433343534D9
:040E10003A3400343C
:080E140049344E344634003429
:040E1C00303400343A
:080E20004E3461344E340034FD
:100E28004E3475346534763461342034443469344E
:100E38007334743461346E346334693461343A34ED
:020E4800003474
:100E4A005634653468346934633475346C346F34B9
:100E5A0020344134703461346734613464346F341B
:020E6A00003452
:100E6C0028342A34293445346E3476346934613468
:040E7C007234003498
:100E8000283423342934533461346C346934723453
:020E900000342C
:040E920031340034C3
:04400E00F22F000786
:00000001FF
